{
	"data": {
		"bytecode": {
			"linkReferences": {},
			"object": "608060405234801561001057600080fd5b506103be806100206000396000f3fe608060405234801561001057600080fd5b506004361061009e5760003560e01c8063da50eaee11610066578063da50eaee14610155578063e2a4b2af1461015f578063e30081a014610183578063e492fd84146101c7578063eb1b30d9146101f55761009e565b806305f2263a146100a357806306540f7e146100ed57806314bf43bd1461010b57806315502612146101155780636deecdbe14610133575b600080fd5b6100ab610225565b604051808273ffffffffffffffffffffffffffffffffffffffff1673ffffffffffffffffffffffffffffffffffffffff16815260200191505060405180910390f35b6100f561024b565b6040518082815260200191505060405180910390f35b610113610251565b005b61011d610284565b6040518082815260200191505060405180910390f35b61013b6102c5565b604051808215151515815260200191505060405180910390f35b61015d6102d8565b005b61016761030c565b604051808260ff1660ff16815260200191505060405180910390f35b6101c56004803603602081101561019957600080fd5b81019080803573ffffffffffffffffffffffffffffffffffffffff16906020019092919050505061031e565b005b6101f3600480360360208110156101dd57600080fd5b8101908080359060200190929190505050610362565b005b6102236004803603602081101561020b57600080fd5b8101908080351515906020019092919050505061036c565b005b600160029054906101000a900473ffffffffffffffffffffffffffffffffffffffff1681565b60005481565b60018081819054906101000a900460ff168092919060010191906101000a81548160ff021916908360ff16021790555050565b6000600160029054906101000a900473ffffffffffffffffffffffffffffffffffffffff1673ffffffffffffffffffffffffffffffffffffffff1631905090565b600160009054906101000a900460ff1681565b60018081819054906101000a900460ff16809291906001900391906101000a81548160ff021916908360ff16021790555050565b6001809054906101000a900460ff1681565b80600160026101000a81548173ffffffffffffffffffffffffffffffffffffffff021916908373ffffffffffffffffffffffffffffffffffffffff16021790555050565b8060008190555050565b80600160006101000a81548160ff0219169083151502179055505056fea265627a7a72315820f53b8da3f3e3adbe701d0b196b863044a0bbd0ca2b8518a50ce67099435f5c7664736f6c63430005110032",
			"opcodes": "PUSH1 0x80 PUSH1 0x40 MSTORE CALLVALUE DUP1 ISZERO PUSH2 0x10 JUMPI PUSH1 0x0 DUP1 REVERT JUMPDEST POP PUSH2 0x3BE DUP1 PUSH2 0x20 PUSH1 0x0 CODECOPY PUSH1 0x0 RETURN INVALID PUSH1 0x80 PUSH1 0x40 MSTORE CALLVALUE DUP1 ISZERO PUSH2 0x10 JUMPI PUSH1 0x0 DUP1 REVERT JUMPDEST POP PUSH1 0x4 CALLDATASIZE LT PUSH2 0x9E JUMPI PUSH1 0x0 CALLDATALOAD PUSH1 0xE0 SHR DUP1 PUSH4 0xDA50EAEE GT PUSH2 0x66 JUMPI DUP1 PUSH4 0xDA50EAEE EQ PUSH2 0x155 JUMPI DUP1 PUSH4 0xE2A4B2AF EQ PUSH2 0x15F JUMPI DUP1 PUSH4 0xE30081A0 EQ PUSH2 0x183 JUMPI DUP1 PUSH4 0xE492FD84 EQ PUSH2 0x1C7 JUMPI DUP1 PUSH4 0xEB1B30D9 EQ PUSH2 0x1F5 JUMPI PUSH2 0x9E JUMP JUMPDEST DUP1 PUSH4 0x5F2263A EQ PUSH2 0xA3 JUMPI DUP1 PUSH4 0x6540F7E EQ PUSH2 0xED JUMPI DUP1 PUSH4 0x14BF43BD EQ PUSH2 0x10B JUMPI DUP1 PUSH4 0x15502612 EQ PUSH2 0x115 JUMPI DUP1 PUSH4 0x6DEECDBE EQ PUSH2 0x133 JUMPI JUMPDEST PUSH1 0x0 DUP1 REVERT JUMPDEST PUSH2 0xAB PUSH2 0x225 JUMP JUMPDEST PUSH1 0x40 MLOAD DUP1 DUP3 PUSH20 0xFFFFFFFFFFFFFFFFFFFFFFFFFFFFFFFFFFFFFFFF AND PUSH20 0xFFFFFFFFFFFFFFFFFFFFFFFFFFFFFFFFFFFFFFFF AND DUP2 MSTORE PUSH1 0x20 ADD SWAP2 POP POP PUSH1 0x40 MLOAD DUP1 SWAP2 SUB SWAP1 RETURN JUMPDEST PUSH2 0xF5 PUSH2 0x24B JUMP JUMPDEST PUSH1 0x40 MLOAD DUP1 DUP3 DUP2 MSTORE PUSH1 0x20 ADD SWAP2 POP POP PUSH1 0x40 MLOAD DUP1 SWAP2 SUB SWAP1 RETURN JUMPDEST PUSH2 0x113 PUSH2 0x251 JUMP JUMPDEST STOP JUMPDEST PUSH2 0x11D PUSH2 0x284 JUMP JUMPDEST PUSH1 0x40 MLOAD DUP1 DUP3 DUP2 MSTORE PUSH1 0x20 ADD SWAP2 POP POP PUSH1 0x40 MLOAD DUP1 SWAP2 SUB SWAP1 RETURN JUMPDEST PUSH2 0x13B PUSH2 0x2C5 JUMP JUMPDEST PUSH1 0x40 MLOAD DUP1 DUP3 ISZERO ISZERO ISZERO ISZERO DUP2 MSTORE PUSH1 0x20 ADD SWAP2 POP POP PUSH1 0x40 MLOAD DUP1 SWAP2 SUB SWAP1 RETURN JUMPDEST PUSH2 0x15D PUSH2 0x2D8 JUMP JUMPDEST STOP JUMPDEST PUSH2 0x167 PUSH2 0x30C JUMP JUMPDEST PUSH1 0x40 MLOAD DUP1 DUP3 PUSH1 0xFF AND PUSH1 0xFF AND DUP2 MSTORE PUSH1 0x20 ADD SWAP2 POP POP PUSH1 0x40 MLOAD DUP1 SWAP2 SUB SWAP1 RETURN JUMPDEST PUSH2 0x1C5 PUSH1 0x4 DUP1 CALLDATASIZE SUB PUSH1 0x20 DUP2 LT ISZERO PUSH2 0x199 JUMPI PUSH1 0x0 DUP1 REVERT JUMPDEST DUP2 ADD SWAP1 DUP1 DUP1 CALLDATALOAD PUSH20 0xFFFFFFFFFFFFFFFFFFFFFFFFFFFFFFFFFFFFFFFF AND SWAP1 PUSH1 0x20 ADD SWAP1 SWAP3 SWAP2 SWAP1 POP POP POP PUSH2 0x31E JUMP JUMPDEST STOP JUMPDEST PUSH2 0x1F3 PUSH1 0x4 DUP1 CALLDATASIZE SUB PUSH1 0x20 DUP2 LT ISZERO PUSH2 0x1DD JUMPI PUSH1 0x0 DUP1 REVERT JUMPDEST DUP2 ADD SWAP1 DUP1 DUP1 CALLDATALOAD SWAP1 PUSH1 0x20 ADD SWAP1 SWAP3 SWAP2 SWAP1 POP POP POP PUSH2 0x362 JUMP JUMPDEST STOP JUMPDEST PUSH2 0x223 PUSH1 0x4 DUP1 CALLDATASIZE SUB PUSH1 0x20 DUP2 LT ISZERO PUSH2 0x20B JUMPI PUSH1 0x0 DUP1 REVERT JUMPDEST DUP2 ADD SWAP1 DUP1 DUP1 CALLDATALOAD ISZERO ISZERO SWAP1 PUSH1 0x20 ADD SWAP1 SWAP3 SWAP2 SWAP1 POP POP POP PUSH2 0x36C JUMP JUMPDEST STOP JUMPDEST PUSH1 0x1 PUSH1 0x2 SWAP1 SLOAD SWAP1 PUSH2 0x100 EXP SWAP1 DIV PUSH20 0xFFFFFFFFFFFFFFFFFFFFFFFFFFFFFFFFFFFFFFFF AND DUP2 JUMP JUMPDEST PUSH1 0x0 SLOAD DUP2 JUMP JUMPDEST PUSH1 0x1 DUP1 DUP2 DUP2 SWAP1 SLOAD SWAP1 PUSH2 0x100 EXP SWAP1 DIV PUSH1 0xFF AND DUP1 SWAP3 SWAP2 SWAP1 PUSH1 0x1 ADD SWAP2 SWAP1 PUSH2 0x100 EXP DUP2 SLOAD DUP2 PUSH1 0xFF MUL NOT AND SWAP1 DUP4 PUSH1 0xFF AND MUL OR SWAP1 SSTORE POP POP JUMP JUMPDEST PUSH1 0x0 PUSH1 0x1 PUSH1 0x2 SWAP1 SLOAD SWAP1 PUSH2 0x100 EXP SWAP1 DIV PUSH20 0xFFFFFFFFFFFFFFFFFFFFFFFFFFFFFFFFFFFFFFFF AND PUSH20 0xFFFFFFFFFFFFFFFFFFFFFFFFFFFFFFFFFFFFFFFF AND BALANCE SWAP1 POP SWAP1 JUMP JUMPDEST PUSH1 0x1 PUSH1 0x0 SWAP1 SLOAD SWAP1 PUSH2 0x100 EXP SWAP1 DIV PUSH1 0xFF AND DUP2 JUMP JUMPDEST PUSH1 0x1 DUP1 DUP2 DUP2 SWAP1 SLOAD SWAP1 PUSH2 0x100 EXP SWAP1 DIV PUSH1 0xFF AND DUP1 SWAP3 SWAP2 SWAP1 PUSH1 0x1 SWAP1 SUB SWAP2 SWAP1 PUSH2 0x100 EXP DUP2 SLOAD DUP2 PUSH1 0xFF MUL NOT AND SWAP1 DUP4 PUSH1 0xFF AND MUL OR SWAP1 SSTORE POP POP JUMP JUMPDEST PUSH1 0x1 DUP1 SWAP1 SLOAD SWAP1 PUSH2 0x100 EXP SWAP1 DIV PUSH1 0xFF AND DUP2 JUMP JUMPDEST DUP1 PUSH1 0x1 PUSH1 0x2 PUSH2 0x100 EXP DUP2 SLOAD DUP2 PUSH20 0xFFFFFFFFFFFFFFFFFFFFFFFFFFFFFFFFFFFFFFFF MUL NOT AND SWAP1 DUP4 PUSH20 0xFFFFFFFFFFFFFFFFFFFFFFFFFFFFFFFFFFFFFFFF AND MUL OR SWAP1 SSTORE POP POP JUMP JUMPDEST DUP1 PUSH1 0x0 DUP2 SWAP1 SSTORE POP POP JUMP JUMPDEST DUP1 PUSH1 0x1 PUSH1 0x0 PUSH2 0x100 EXP DUP2 SLOAD DUP2 PUSH1 0xFF MUL NOT AND SWAP1 DUP4 ISZERO ISZERO MUL OR SWAP1 SSTORE POP POP JUMP INVALID LOG2 PUSH6 0x627A7A723158 KECCAK256 CREATE2 EXTCODESIZE DUP14 LOG3 RETURN 0xE3 0xAD 0xBE PUSH17 0x1D0B196B863044A0BBD0CA2B8518A50CE6 PUSH17 0x99435F5C7664736F6C6343000511003200 "
		},
		"gasEstimates": {
			"creation": {
				"codeDepositCost": "191600",
				"executionCost": "232",
				"totalCost": "191832"
			},
			"external": {
				"decrementUint()": "21976",
				"getBalanceOfAddress()": "1872",
				"incrementUint()": "22018",
				"myAddres()": "1104",
				"myBool()": "1142",
				"myUint()": "1028",
				"myUint8()": "1125",
				"setAddress(address)": "21195",
				"setMyBool(bool)": "21189",
				"setMyUint(uint256)": "20308"
			}
		},
		"methodIdentifiers": {
			"decrementUint()": "da50eaee",
			"getBalanceOfAddress()": "15502612",
			"incrementUint()": "14bf43bd",
			"myAddres()": "05f2263a",
			"myBool()": "6deecdbe",
			"myUint()": "06540f7e",
			"myUint8()": "e2a4b2af",
			"setAddress(address)": "e30081a0",
			"setMyBool(bool)": "eb1b30d9",
			"setMyUint(uint256)": "e492fd84"
		}
	},
	"abi": [
		{
			"constant": false,
			"inputs": [],
			"name": "decrementUint",
			"outputs": [],
			"payable": false,
			"stateMutability": "nonpayable",
			"type": "function"
		},
		{
			"constant": true,
			"inputs": [],
			"name": "getBalanceOfAddress",
			"outputs": [
				{
					"internalType": "uint256",
					"name": "",
					"type": "uint256"
				}
			],
			"payable": false,
			"stateMutability": "view",
			"type": "function"
		},
		{
			"constant": false,
			"inputs": [],
			"name": "incrementUint",
			"outputs": [],
			"payable": false,
			"stateMutability": "nonpayable",
			"type": "function"
		},
		{
			"constant": true,
			"inputs": [],
			"name": "myAddres",
			"outputs": [
				{
					"internalType": "address",
					"name": "",
					"type": "address"
				}
			],
			"payable": false,
			"stateMutability": "view",
			"type": "function"
		},
		{
			"constant": true,
			"inputs": [],
			"name": "myBool",
			"outputs": [
				{
					"internalType": "bool",
					"name": "",
					"type": "bool"
				}
			],
			"payable": false,
			"stateMutability": "view",
			"type": "function"
		},
		{
			"constant": true,
			"inputs": [],
			"name": "myUint",
			"outputs": [
				{
					"internalType": "uint256",
					"name": "",
					"type": "uint256"
				}
			],
			"payable": false,
			"stateMutability": "view",
			"type": "function"
		},
		{
			"constant": true,
			"inputs": [],
			"name": "myUint8",
			"outputs": [
				{
					"internalType": "uint8",
					"name": "",
					"type": "uint8"
				}
			],
			"payable": false,
			"stateMutability": "view",
			"type": "function"
		},
		{
			"constant": false,
			"inputs": [
				{
					"internalType": "address",
					"name": "_myAddress",
					"type": "address"
				}
			],
			"name": "setAddress",
			"outputs": [],
			"payable": false,
			"stateMutability": "nonpayable",
			"type": "function"
		},
		{
			"constant": false,
			"inputs": [
				{
					"internalType": "bool",
					"name": "_myBool",
					"type": "bool"
				}
			],
			"name": "setMyBool",
			"outputs": [],
			"payable": false,
			"stateMutability": "nonpayable",
			"type": "function"
		},
		{
			"constant": false,
			"inputs": [
				{
					"internalType": "uint256",
					"name": "_myUint",
					"type": "uint256"
				}
			],
			"name": "setMyUint",
			"outputs": [],
			"payable": false,
			"stateMutability": "nonpayable",
			"type": "function"
		}
	]
}